{
  "contractName": "Escrow",
  "abi": [
    {
      "constant": true,
      "inputs": [],
      "name": "seller",
      "outputs": [
        {
          "name": "",
          "type": "address"
        }
      ],
      "payable": false,
      "stateMutability": "view",
      "type": "function"
    },
    {
      "constant": true,
      "inputs": [],
      "name": "buyer",
      "outputs": [
        {
          "name": "",
          "type": "address"
        }
      ],
      "payable": false,
      "stateMutability": "view",
      "type": "function"
    },
    {
      "inputs": [
        {
          "name": "_buyer",
          "type": "address"
        },
        {
          "name": "_seller",
          "type": "address"
        },
        {
          "name": "_owner",
          "type": "address"
        }
      ],
      "payable": true,
      "stateMutability": "payable",
      "type": "constructor"
    },
    {
      "constant": false,
      "inputs": [
        {
          "name": "ok",
          "type": "bool"
        }
      ],
      "name": "update",
      "outputs": [],
      "payable": false,
      "stateMutability": "nonpayable",
      "type": "function"
    },
    {
      "constant": false,
      "inputs": [],
      "name": "status",
      "outputs": [
        {
          "name": "success",
          "type": "string"
        }
      ],
      "payable": false,
      "stateMutability": "nonpayable",
      "type": "function"
    }
  ],
  "bytecode": "0x60606040526040805190810160405280600481526020017f6f70656e000000000000000000000000000000000000000000000000000000008152506007908051906020019061004f92919061014f565b506040516060806109e883398101604052808051906020019091908051906020019091908051906020019091905050826000806101000a81548173ffffffffffffffffffffffffffffffffffffffff021916908373ffffffffffffffffffffffffffffffffffffffff16021790555081600160006101000a81548173ffffffffffffffffffffffffffffffffffffffff021916908373ffffffffffffffffffffffffffffffffffffffff16021790555080600260006101000a81548173ffffffffffffffffffffffffffffffffffffffff021916908373ffffffffffffffffffffffffffffffffffffffff160217905550426003819055505050506101f4565b828054600181600116156101000203166002900490600052602060002090601f016020900481019282601f1061019057805160ff19168380011785556101be565b828001600101855582156101be579182015b828111156101bd5782518255916020019190600101906101a2565b5b5090506101cb91906101cf565b5090565b6101f191905b808211156101ed5760008160009055506001016101d5565b5090565b90565b6107e5806102036000396000f300606060405260043610610062576000357c0100000000000000000000000000000000000000000000000000000000900463ffffffff16806308551a5314610067578063200d2ed2146100bc5780634d917c9f1461014a5780637150d8ae1461016f575b600080fd5b341561007257600080fd5b61007a6101c4565b604051808273ffffffffffffffffffffffffffffffffffffffff1673ffffffffffffffffffffffffffffffffffffffff16815260200191505060405180910390f35b34156100c757600080fd5b6100cf6101ea565b6040518080602001828103825283818151815260200191508051906020019080838360005b8381101561010f5780820151818401526020810190506100f4565b50505050905090810190601f16801561013c5780820380516001836020036101000a031916815260200191505b509250505060405180910390f35b341561015557600080fd5b61016d60048080351515906020019091905050610292565b005b341561017a57600080fd5b6101826106db565b604051808273ffffffffffffffffffffffffffffffffffffffff1673ffffffffffffffffffffffffffffffffffffffff16815260200191505060405180910390f35b600160009054906101000a900473ffffffffffffffffffffffffffffffffffffffff1681565b6101f2610700565b60078054600181600116156101000203166002900480601f0160208091040260200160405190810160405280929190818152602001828054600181600116156101000203166002900480156102885780601f1061025d57610100808354040283529160200191610288565b820191906000526020600020905b81548152906001019060200180831161026b57829003601f168201915b5050505050905090565b6000809054906101000a900473ffffffffffffffffffffffffffffffffffffffff1673ffffffffffffffffffffffffffffffffffffffff163373ffffffffffffffffffffffffffffffffffffffff16148061033a5750600160009054906101000a900473ffffffffffffffffffffffffffffffffffffffff1673ffffffffffffffffffffffffffffffffffffffff163373ffffffffffffffffffffffffffffffffffffffff16145b151561034557600080fd5b8015156104a9576000809054906101000a900473ffffffffffffffffffffffffffffffffffffffff1673ffffffffffffffffffffffffffffffffffffffff166108fc606460633073ffffffffffffffffffffffffffffffffffffffff1631028115156103ad57fe5b049081150290604051600060405180830381858888f1935050505015156103d357600080fd5b600260009054906101000a900473ffffffffffffffffffffffffffffffffffffffff1673ffffffffffffffffffffffffffffffffffffffff166108fc60643073ffffffffffffffffffffffffffffffffffffffff163181151561043257fe5b049081150290604051600060405180830381858888f19350505050151561045857600080fd5b6040805190810160405280600881526020017f72656a6563746564000000000000000000000000000000000000000000000000815250600790805190602001906104a3929190610714565b506106d8565b6000809054906101000a900473ffffffffffffffffffffffffffffffffffffffff1673ffffffffffffffffffffffffffffffffffffffff163373ffffffffffffffffffffffffffffffffffffffff16141561050657426004819055505b600160009054906101000a900473ffffffffffffffffffffffffffffffffffffffff1673ffffffffffffffffffffffffffffffffffffffff163373ffffffffffffffffffffffffffffffffffffffff16141561056457426005819055505b600060055411801561057857506000600454115b156106d757600160009054906101000a900473ffffffffffffffffffffffffffffffffffffffff1673ffffffffffffffffffffffffffffffffffffffff166108fc606460633073ffffffffffffffffffffffffffffffffffffffff1631028115156105df57fe5b049081150290604051600060405180830381858888f19350505050151561060557600080fd5b600260009054906101000a900473ffffffffffffffffffffffffffffffffffffffff1673ffffffffffffffffffffffffffffffffffffffff166108fc60643073ffffffffffffffffffffffffffffffffffffffff163181151561066457fe5b049081150290604051600060405180830381858888f19350505050151561068a57600080fd5b6040805190810160405280600781526020017f7375636365737300000000000000000000000000000000000000000000000000815250600790805190602001906106d5929190610714565b505b5b50565b6000809054906101000a900473ffffffffffffffffffffffffffffffffffffffff1681565b602060405190810160405280600081525090565b828054600181600116156101000203166002900490600052602060002090601f016020900481019282601f1061075557805160ff1916838001178555610783565b82800160010185558215610783579182015b82811115610782578251825591602001919060010190610767565b5b5090506107909190610794565b5090565b6107b691905b808211156107b257600081600090555060010161079a565b5090565b905600a165627a7a723058202c3df8a33eee609eedbcc59b57f4df81577253d19289115926107a9862e323210029",
  "source": "pragma solidity ^0.4.3;\n\ncontract Escrow{\n    address public buyer;\n    address public seller;\n    address owner;\n    uint createdTime;\n    uint buyerAcceptedAt;\n    uint sellerAcceptedAt;\n    uint ownerAcceptedAt;\n    string public status = \"open\";\n\n    function Escrow(address _buyer, address _seller, address _owner) public payable {\n        buyer = _buyer;\n        seller = _seller;\n        owner = _owner;\n        createdTime = now;\n    }\n\n    function update(bool ok) public {\n        require(msg.sender == buyer || msg.sender == seller);\n        if (!ok) {\n            buyer.transfer(address(this).balance*99/100);\n            owner.transfer(address(this).balance/100);\n            status = \"rejected\";\n        } else {\n            if (msg.sender == buyer) {\n                buyerAcceptedAt = now;\n            }\n            if (msg.sender == seller) {\n                sellerAcceptedAt = now;\n            }\n            if (sellerAcceptedAt > 0 && buyerAcceptedAt > 0 ) {\n                seller.transfer(address(this).balance*99/100);\n                owner.transfer(address(this).balance/100);\n                status = \"success\";\n            }\n        }\n    }\n\n    function status() public returns (string success) {\n        return status;\n    }\n}\n",
  "sourcePath": "/Users/thanh/bc-assignment-2/contracts/Escrow.sol",
  "compiler": {
    "name": "solc",
    "version": "0.4.19+commit.c4cbbb05.Emscripten.clang"
  },
  "schemaVersion": "2.0.0",
  "updatedAt": "2018-03-29T17:18:24.969Z"
}