{
  "contractName": "EscrowFactory",
  "abi": [
    {
      "inputs": [],
      "payable": false,
      "stateMutability": "nonpayable",
      "type": "constructor"
    },
    {
      "anonymous": false,
      "inputs": [
        {
          "indexed": false,
          "name": "newAddress",
          "type": "address"
        }
      ],
      "name": "EscrowCreated",
      "type": "event"
    },
    {
      "constant": false,
      "inputs": [
        {
          "name": "seller",
          "type": "address"
        }
      ],
      "name": "createEscrow",
      "outputs": [],
      "payable": true,
      "stateMutability": "payable",
      "type": "function"
    }
  ],
  "bytecode": "0x6060604052341561000f57600080fd5b6105888061001e6000396000f300606060405260043610610041576000357c0100000000000000000000000000000000000000000000000000000000900463ffffffff168063f6a8419e14610046575b600080fd5b610072600480803573ffffffffffffffffffffffffffffffffffffffff16906020019091905050610074565b005b600034338361008161016a565b808373ffffffffffffffffffffffffffffffffffffffff1673ffffffffffffffffffffffffffffffffffffffff1681526020018273ffffffffffffffffffffffffffffffffffffffff1673ffffffffffffffffffffffffffffffffffffffff168152602001925050506040518091039082f08015156100ff57600080fd5b905090507fdc172423e65e4eb718110c42ad3b66ac4b0a613e4d07bfb55f2477f2d1bf34eb81604051808273ffffffffffffffffffffffffffffffffffffffff1673ffffffffffffffffffffffffffffffffffffffff16815260200191505060405180910390a15050565b6040516103e28061017b83390190560060606040526040516040806103e283398101604052808051906020019091908051906020019091905050816000806101000a81548173ffffffffffffffffffffffffffffffffffffffff021916908373ffffffffffffffffffffffffffffffffffffffff16021790555080600160006101000a81548173ffffffffffffffffffffffffffffffffffffffff021916908373ffffffffffffffffffffffffffffffffffffffff160217905550426002819055505050610320806100c26000396000f300606060405260043610610041576000357c0100000000000000000000000000000000000000000000000000000000900463ffffffff1680634d917c9f14610046575b600080fd5b341561005157600080fd5b6100696004808035151590602001909190505061006b565b005b6000809054906101000a900473ffffffffffffffffffffffffffffffffffffffff1673ffffffffffffffffffffffffffffffffffffffff163373ffffffffffffffffffffffffffffffffffffffff1614806101135750600160009054906101000a900473ffffffffffffffffffffffffffffffffffffffff1673ffffffffffffffffffffffffffffffffffffffff163373ffffffffffffffffffffffffffffffffffffffff16145b151561011e57600080fd5b8015156101a2576000809054906101000a900473ffffffffffffffffffffffffffffffffffffffff1673ffffffffffffffffffffffffffffffffffffffff166108fc3073ffffffffffffffffffffffffffffffffffffffff16319081150290604051600060405180830381858888f19350505050151561019d57600080fd5b6102f1565b6000809054906101000a900473ffffffffffffffffffffffffffffffffffffffff1673ffffffffffffffffffffffffffffffffffffffff163373ffffffffffffffffffffffffffffffffffffffff1614156101ff57426003819055505b600160009054906101000a900473ffffffffffffffffffffffffffffffffffffffff1673ffffffffffffffffffffffffffffffffffffffff163373ffffffffffffffffffffffffffffffffffffffff16141561025d57426004819055505b600060045411801561027157506000600354115b156102f057600160009054906101000a900473ffffffffffffffffffffffffffffffffffffffff1673ffffffffffffffffffffffffffffffffffffffff166108fc3073ffffffffffffffffffffffffffffffffffffffff16319081150290604051600060405180830381858888f1935050505015156102ef57600080fd5b5b5b505600a165627a7a723058208f5a51465c537c02d3c186785274e6645f7538c1bb1bedc571b36854ef5b71b20029a165627a7a7230582006eefec0d0baaeb234e63c86f626e8130f9b7166cbf4c32b683419768038959d0029",
  "source": "pragma solidity ^0.4.17;\n\nimport \"./Escrow.sol\";\n\ncontract EscrowFactory {\n    event EscrowCreated(address newAddress);\n\n    function EscrowFactory() public {}\n\n    function createEscrow(address seller) public payable {\n        address escrowAddress = address(((new Escrow).value(msg.value)(msg.sender, seller)));\n        EscrowCreated(escrowAddress);\n    }\n}",
  "sourcePath": "/Users/thanh/bc-assignment-2/contracts/EscrowFactory.sol",
  "compiler": {
    "name": "solc",
    "version": "0.4.19+commit.c4cbbb05.Emscripten.clang"
  },
  "schemaVersion": "2.0.0",
  "updatedAt": "2018-03-25T15:15:59.097Z"
}