{
  "contractName": "Escrow",
  "abi": [
    {
      "inputs": [
        {
          "name": "_buyer",
          "type": "address"
        },
        {
          "name": "_seller",
          "type": "address"
        },
        {
          "name": "_owner",
          "type": "address"
        }
      ],
      "payable": true,
      "stateMutability": "payable",
      "type": "constructor"
    },
    {
      "constant": false,
      "inputs": [
        {
          "name": "ok",
          "type": "bool"
        }
      ],
      "name": "update",
      "outputs": [],
      "payable": false,
      "stateMutability": "nonpayable",
      "type": "function"
    }
  ],
  "bytecode": "0x606060405260405160608061042d83398101604052808051906020019091908051906020019091908051906020019091905050826000806101000a81548173ffffffffffffffffffffffffffffffffffffffff021916908373ffffffffffffffffffffffffffffffffffffffff16021790555081600160006101000a81548173ffffffffffffffffffffffffffffffffffffffff021916908373ffffffffffffffffffffffffffffffffffffffff16021790555080600260006101000a81548173ffffffffffffffffffffffffffffffffffffffff021916908373ffffffffffffffffffffffffffffffffffffffff160217905550426003819055505050506103208061010d6000396000f300606060405260043610610041576000357c0100000000000000000000000000000000000000000000000000000000900463ffffffff1680634d917c9f14610046575b600080fd5b341561005157600080fd5b6100696004808035151590602001909190505061006b565b005b6000809054906101000a900473ffffffffffffffffffffffffffffffffffffffff1673ffffffffffffffffffffffffffffffffffffffff163373ffffffffffffffffffffffffffffffffffffffff1614806101135750600160009054906101000a900473ffffffffffffffffffffffffffffffffffffffff1673ffffffffffffffffffffffffffffffffffffffff163373ffffffffffffffffffffffffffffffffffffffff16145b151561011e57600080fd5b8015156101a2576000809054906101000a900473ffffffffffffffffffffffffffffffffffffffff1673ffffffffffffffffffffffffffffffffffffffff166108fc3073ffffffffffffffffffffffffffffffffffffffff16319081150290604051600060405180830381858888f19350505050151561019d57600080fd5b6102f1565b6000809054906101000a900473ffffffffffffffffffffffffffffffffffffffff1673ffffffffffffffffffffffffffffffffffffffff163373ffffffffffffffffffffffffffffffffffffffff1614156101ff57426004819055505b600160009054906101000a900473ffffffffffffffffffffffffffffffffffffffff1673ffffffffffffffffffffffffffffffffffffffff163373ffffffffffffffffffffffffffffffffffffffff16141561025d57426005819055505b600060055411801561027157506000600454115b156102f057600160009054906101000a900473ffffffffffffffffffffffffffffffffffffffff1673ffffffffffffffffffffffffffffffffffffffff166108fc3073ffffffffffffffffffffffffffffffffffffffff16319081150290604051600060405180830381858888f1935050505015156102ef57600080fd5b5b5b505600a165627a7a723058206f7bccc0e7f6c53ebe2b3c1315f3ef2d4f514a0c627f021ffe4044b9d433ff2f0029",
  "source": "pragma solidity ^0.4.3;\n\ncontract Escrow{\n    address buyer;\n    address seller;\n    address owner;\n    uint createdTime;\n    uint    buyerAcceptedAt;\n    uint sellerAcceptedAt;\n\n    function Escrow(address _buyer, address _seller, address _owner) public payable {\n        buyer = _buyer;\n        seller = _seller;\n        owner = _owner;\n        createdTime = now;\n    }\n\n    function update(bool ok) public {\n        require(msg.sender == buyer || msg.sender == seller);\n        if (!ok) {\n            buyer.transfer(address(this).balance);\n        } else {\n            if (msg.sender == buyer) {\n                buyerAcceptedAt = now;\n            }\n            if (msg.sender == seller) {\n                sellerAcceptedAt = now;\n            }\n            if (sellerAcceptedAt > 0 && buyerAcceptedAt > 0 ) {\n                seller.transfer(address(this).balance);\n            }\n        }\n    }\n}\n",
  "sourcePath": "/Users/thanh/bc-assignment-2/contracts/Escrow.sol",
  "compiler": {
    "name": "solc",
    "version": "0.4.19+commit.c4cbbb05.Emscripten.clang"
  },
  "schemaVersion": "2.0.0",
  "updatedAt": "2018-03-27T15:34:29.072Z"
}