{
  "contractName": "Store",
  "abi": [
    {
      "constant": true,
      "inputs": [],
      "name": "owner",
      "outputs": [
        {
          "name": "",
          "type": "address"
        }
      ],
      "payable": false,
      "stateMutability": "view",
      "type": "function"
    },
    {
      "constant": true,
      "inputs": [],
      "name": "productCount",
      "outputs": [
        {
          "name": "",
          "type": "uint256"
        }
      ],
      "payable": false,
      "stateMutability": "view",
      "type": "function"
    },
    {
      "constant": true,
      "inputs": [],
      "name": "escrowOwner",
      "outputs": [
        {
          "name": "",
          "type": "address"
        }
      ],
      "payable": false,
      "stateMutability": "view",
      "type": "function"
    },
    {
      "inputs": [],
      "payable": false,
      "stateMutability": "nonpayable",
      "type": "constructor"
    },
    {
      "anonymous": false,
      "inputs": [
        {
          "indexed": false,
          "name": "customer",
          "type": "address"
        }
      ],
      "name": "CustomerRegistered",
      "type": "event"
    },
    {
      "anonymous": false,
      "inputs": [
        {
          "indexed": false,
          "name": "productId",
          "type": "uint256"
        },
        {
          "indexed": false,
          "name": "name",
          "type": "string"
        },
        {
          "indexed": false,
          "name": "category",
          "type": "string"
        },
        {
          "indexed": false,
          "name": "imageLink",
          "type": "string"
        },
        {
          "indexed": false,
          "name": "description",
          "type": "string"
        },
        {
          "indexed": false,
          "name": "price",
          "type": "uint256"
        }
      ],
      "name": "ProductAdded",
      "type": "event"
    },
    {
      "anonymous": false,
      "inputs": [
        {
          "indexed": false,
          "name": "customer",
          "type": "address"
        },
        {
          "indexed": false,
          "name": "prodId",
          "type": "uint256"
        },
        {
          "indexed": false,
          "name": "prodPrice",
          "type": "uint256"
        },
        {
          "indexed": false,
          "name": "completeSum",
          "type": "uint256"
        }
      ],
      "name": "CartProductInserted",
      "type": "event"
    },
    {
      "anonymous": false,
      "inputs": [
        {
          "indexed": false,
          "name": "customer",
          "type": "address"
        },
        {
          "indexed": false,
          "name": "prodId",
          "type": "uint256"
        }
      ],
      "name": "CartProductRemoved",
      "type": "event"
    },
    {
      "anonymous": false,
      "inputs": [
        {
          "indexed": false,
          "name": "customer",
          "type": "address"
        },
        {
          "indexed": false,
          "name": "paymentSum",
          "type": "uint256"
        }
      ],
      "name": "CartCheckoutCompleted",
      "type": "event"
    },
    {
      "anonymous": false,
      "inputs": [
        {
          "indexed": false,
          "name": "customer",
          "type": "address"
        }
      ],
      "name": "CartEmptied",
      "type": "event"
    },
    {
      "anonymous": false,
      "inputs": [
        {
          "indexed": false,
          "name": "customer",
          "type": "address"
        },
        {
          "indexed": false,
          "name": "orderNumber",
          "type": "uint256"
        }
      ],
      "name": "OrderCreated",
      "type": "event"
    },
    {
      "anonymous": false,
      "inputs": [
        {
          "indexed": false,
          "name": "customer",
          "type": "address"
        },
        {
          "indexed": false,
          "name": "status",
          "type": "string"
        }
      ],
      "name": "OrderConfirm",
      "type": "event"
    },
    {
      "constant": false,
      "inputs": [
        {
          "name": "_eOwner",
          "type": "address"
        }
      ],
      "name": "connectEscrowOwner",
      "outputs": [],
      "payable": false,
      "stateMutability": "nonpayable",
      "type": "function"
    },
    {
      "constant": false,
      "inputs": [
        {
          "name": "name",
          "type": "string"
        },
        {
          "name": "category",
          "type": "string"
        },
        {
          "name": "imageLink",
          "type": "string"
        },
        {
          "name": "description",
          "type": "string"
        },
        {
          "name": "price",
          "type": "uint256"
        }
      ],
      "name": "addProduct",
      "outputs": [],
      "payable": false,
      "stateMutability": "nonpayable",
      "type": "function"
    },
    {
      "constant": true,
      "inputs": [
        {
          "name": "productId",
          "type": "uint256"
        }
      ],
      "name": "getProduct",
      "outputs": [
        {
          "name": "",
          "type": "string"
        },
        {
          "name": "",
          "type": "string"
        },
        {
          "name": "",
          "type": "string"
        },
        {
          "name": "",
          "type": "string"
        },
        {
          "name": "",
          "type": "uint256"
        },
        {
          "name": "",
          "type": "uint8"
        }
      ],
      "payable": false,
      "stateMutability": "view",
      "type": "function"
    },
    {
      "constant": true,
      "inputs": [],
      "name": "getProductCount",
      "outputs": [
        {
          "name": "",
          "type": "uint256"
        }
      ],
      "payable": false,
      "stateMutability": "view",
      "type": "function"
    },
    {
      "constant": false,
      "inputs": [
        {
          "name": "_address",
          "type": "address"
        },
        {
          "name": "_name",
          "type": "bytes32"
        },
        {
          "name": "_balance",
          "type": "uint256"
        }
      ],
      "name": "registerCustomer",
      "outputs": [],
      "payable": false,
      "stateMutability": "nonpayable",
      "type": "function"
    },
    {
      "constant": false,
      "inputs": [
        {
          "name": "id",
          "type": "uint256"
        }
      ],
      "name": "addToCart",
      "outputs": [
        {
          "name": "success",
          "type": "bool"
        },
        {
          "name": "pos_in_prod_mapping",
          "type": "uint256"
        }
      ],
      "payable": false,
      "stateMutability": "nonpayable",
      "type": "function"
    },
    {
      "constant": false,
      "inputs": [
        {
          "name": "_completeSum",
          "type": "uint256"
        }
      ],
      "name": "checkoutCart",
      "outputs": [
        {
          "name": "success",
          "type": "bool"
        }
      ],
      "payable": false,
      "stateMutability": "nonpayable",
      "type": "function"
    }
  ],
  "bytecode": "0x60606040526000600655341561001457600080fd5b336000806101000a81548173ffffffffffffffffffffffffffffffffffffffff021916908373ffffffffffffffffffffffffffffffffffffffff160217905550612331806100636000396000f300606060405260043610620000af576000357c0100000000000000000000000000000000000000000000000000000000900463ffffffff1680632152709014620000b457806325dfbfba14620001065780634a348da9146200023857806353c7fc321462000264578063635af6f214620002a2578063702742b014620002de5780638da5cb5b1462000323578063b9db15b4146200037b578063e0f6ef871462000587578063e1e417c414620005b3575b600080fd5b3415620000c057600080fd5b62000104600480803573ffffffffffffffffffffffffffffffffffffffff16906020019091908035600019169060200190919080359060200190919050506200060b565b005b34156200011257600080fd5b62000236600480803590602001908201803590602001908080601f0160208091040260200160405190810160405280939291908181526020018383808284378201915050505050509190803590602001908201803590602001908080601f0160208091040260200160405190810160405280939291908181526020018383808284378201915050505050509190803590602001908201803590602001908080601f0160208091040260200160405190810160405280939291908181526020018383808284378201915050505050509190803590602001908201803590602001908080601f01602080910402602001604051908101604052809392919081815260200183838082843782019150505050505091908035906020019091905050620007da565b005b34156200024457600080fd5b6200024e62000b27565b6040518082815260200191505060405180910390f35b34156200027057600080fd5b62000288600480803590602001909190505062000b31565b604051808215151515815260200191505060405180910390f35b3415620002ae57600080fd5b620002dc600480803573ffffffffffffffffffffffffffffffffffffffff1690602001909190505062000dd0565b005b3415620002ea57600080fd5b62000302600480803590602001909190505062000e14565b60405180831515151581526020018281526020019250505060405180910390f35b34156200032f57600080fd5b6200033962001286565b604051808273ffffffffffffffffffffffffffffffffffffffff1673ffffffffffffffffffffffffffffffffffffffff16815260200191505060405180910390f35b34156200038757600080fd5b6200039f6004808035906020019091905050620012ab565b6040518080602001806020018060200180602001878152602001866001811115620003c657fe5b60ff16815260200185810385528b818151815260200191508051906020019080838360005b8381101562000408578082015181840152602081019050620003eb565b50505050905090810190601f168015620004365780820380516001836020036101000a031916815260200191505b5085810384528a818151815260200191508051906020019080838360005b838110156200047157808201518184015260208101905062000454565b50505050905090810190601f1680156200049f5780820380516001836020036101000a031916815260200191505b50858103835289818151815260200191508051906020019080838360005b83811015620004da578082015181840152602081019050620004bd565b50505050905090810190601f168015620005085780820380516001836020036101000a031916815260200191505b50858103825288818151815260200191508051906020019080838360005b838110156200054357808201518184015260208101905062000526565b50505050905090810190601f168015620005715780820380516001836020036101000a031916815260200191505b509a505050505050505050505060405180910390f35b34156200059357600080fd5b6200059d62001611565b6040518082815260200191505060405180910390f35b3415620005bf57600080fd5b620005c962001617565b604051808273ffffffffffffffffffffffffffffffffffffffff1673ffffffffffffffffffffffffffffffffffffffff16815260200191505060405180910390f35b620006156200163d565b60a0604051908101604052808573ffffffffffffffffffffffffffffffffffffffff1681526020018460001916815260200183815260200160408051908101604052806000604051805910620006685750595b90808252806020026020018201604052508152602001600081525081526020016000815250905080600260008673ffffffffffffffffffffffffffffffffffffffff1673ffffffffffffffffffffffffffffffffffffffff16815260200190815260200160002060008201518160000160006101000a81548173ffffffffffffffffffffffffffffffffffffffff021916908373ffffffffffffffffffffffffffffffffffffffff16021790555060208201518160010190600019169055604082015181600201556060820151816003016000820151816000019080519060200190620007579291906200168e565b50602082015181600101555050608082015181600501559050507f155e8619f4d23b96769599cb9af87da3e06a360082869c18578011da9a06e67084604051808273ffffffffffffffffffffffffffffffffffffffff1673ffffffffffffffffffffffffffffffffffffffff16815260200191505060405180910390a150505050565b6006546003600060065481526020019081526020016000206000018190555084600360006006548152602001908152602001600020600101908051906020019062000827929190620016e0565b5083600360006006548152602001908152602001600020600201908051906020019062000856929190620016e0565b5082600360006006548152602001908152602001600020600301908051906020019062000885929190620016e0565b50816003600060065481526020019081526020016000206004019080519060200190620008b4929190620016e0565b508060036000600654815260200190815260200160002060050181905550600060036000600654815260200190815260200160002060060160006101000a81548160ff021916908360018111156200090857fe5b02179055507fc80d8977eb21bc7ae81efad32286b6030afbbf2efdb146c4949d55849fa267076006548686868686604051808781526020018060200180602001806020018060200186815260200185810385528a818151815260200191508051906020019080838360005b838110156200099057808201518184015260208101905062000973565b50505050905090810190601f168015620009be5780820380516001836020036101000a031916815260200191505b50858103845289818151815260200191508051906020019080838360005b83811015620009f9578082015181840152602081019050620009dc565b50505050905090810190601f16801562000a275780820380516001836020036101000a031916815260200191505b50858103835288818151815260200191508051906020019080838360005b8381101562000a6257808201518184015260208101905062000a45565b50505050905090810190601f16801562000a905780820380516001836020036101000a031916815260200191505b50858103825287818151815260200191508051906020019080838360005b8381101562000acb57808201518184015260208101905062000aae565b50505050905090810190601f16801562000af95780820380516001836020036101000a031916815260200191505b509a505050505050505050505060405180910390a16006600081548092919060010191905055505050505050565b6000600654905090565b6000813373ffffffffffffffffffffffffffffffffffffffff163110151562000dc657600460003373ffffffffffffffffffffffffffffffffffffffff1673ffffffffffffffffffffffffffffffffffffffff168152602001908152602001600020805480600101828162000ba7919062001767565b91600052602060002090600202016000604080519081016040528086815260200186336000809054906101000a900473ffffffffffffffffffffffffffffffffffffffff16600160009054906101000a900473ffffffffffffffffffffffffffffffffffffffff1662000c196200179c565b808473ffffffffffffffffffffffffffffffffffffffff1673ffffffffffffffffffffffffffffffffffffffff1681526020018373ffffffffffffffffffffffffffffffffffffffff1673ffffffffffffffffffffffffffffffffffffffff1681526020018273ffffffffffffffffffffffffffffffffffffffff1673ffffffffffffffffffffffffffffffffffffffff16815260200193505050506040518091039082f080151562000ccb57600080fd5b905073ffffffffffffffffffffffffffffffffffffffff1681525090919091506000820151816000015560208201518160010160006101000a81548173ffffffffffffffffffffffffffffffffffffffff021916908373ffffffffffffffffffffffffffffffffffffffff1602179055505050506005600081548092919060010191905055507f8068f12c6f872a8083325d2bfebb318eb0378ba88e7012c368a8156893a236e13383604051808373ffffffffffffffffffffffffffffffffffffffff1673ffffffffffffffffffffffffffffffffffffffff1681526020018281526020019250505060405180910390a16001905062000dcb565b600090505b919050565b80600160006101000a81548173ffffffffffffffffffffffffffffffffffffffff021916908373ffffffffffffffffffffffffffffffffffffffff16021790555050565b600080600062000e23620017ad565b600080600260003373ffffffffffffffffffffffffffffffffffffffff1673ffffffffffffffffffffffffffffffffffffffff16815260200190815260200160002093506003600088815260200190815260200160002060e0604051908101604052908160008201548152602001600182018054600181600116156101000203166002900480601f01602080910402602001604051908101604052809291908181526020018280546001816001161561010002031660029004801562000f2d5780601f1062000f015761010080835404028352916020019162000f2d565b820191906000526020600020905b81548152906001019060200180831162000f0f57829003601f168201915b50505050508152602001600282018054600181600116156101000203166002900480601f01602080910402602001604051908101604052809291908181526020018280546001816001161561010002031660029004801562000fd35780601f1062000fa75761010080835404028352916020019162000fd3565b820191906000526020600020905b81548152906001019060200180831162000fb557829003601f168201915b50505050508152602001600382018054600181600116156101000203166002900480601f016020809104026020016040519081016040528092919081815260200182805460018160011615610100020316600290048015620010795780601f106200104d5761010080835404028352916020019162001079565b820191906000526020600020905b8154815290600101906020018083116200105b57829003601f168201915b50505050508152602001600482018054600181600116156101000203166002900480601f0160208091040260200160405190810160405280929190818152602001828054600181600116156101000203166002900480156200111f5780601f10620010f3576101008083540402835291602001916200111f565b820191906000526020600020905b8154815290600101906020018083116200110157829003601f168201915b50505050508152602001600582015481526020016006820160009054906101000a900460ff1660018111156200115157fe5b60018111156200115d57fe5b815250509250836003016000018054905091508360030160000180548060010182816200118b919062001817565b91600052602060002090016000856000015190919091505550836003016001015490508260a0015181018460030160010181905550818460030160000180549050111562001272577f1e862ddcab5a3222c811c44ecc1c4a46d3da57dde0e884ad6e7e070a8ece237733888560a001518760030160010154604051808573ffffffffffffffffffffffffffffffffffffffff1673ffffffffffffffffffffffffffffffffffffffff16815260200184815260200183815260200182815260200194505050505060405180910390a1600180856003016000018054905003955095506200127d565b600080809050955095505b50505050915091565b6000809054906101000a900473ffffffffffffffffffffffffffffffffffffffff1681565b620012b562001846565b620012bf62001846565b620012c962001846565b620012d362001846565b6000806006548711151562001607576003600088815260200190815260200160002060010160036000898152602001908152602001600020600201600360008a8152602001908152602001600020600301600360008b8152602001908152602001600020600401600360008c815260200190815260200160002060050154600360008d815260200190815260200160002060060160009054906101000a900460ff16858054600181600116156101000203166002900480601f0160208091040260200160405190810160405280929190818152602001828054600181600116156101000203166002900480156200140e5780601f10620013e2576101008083540402835291602001916200140e565b820191906000526020600020905b815481529060010190602001808311620013f057829003601f168201915b50505050509550848054600181600116156101000203166002900480601f016020809104026020016040519081016040528092919081815260200182805460018160011615610100020316600290048015620014ae5780601f106200148257610100808354040283529160200191620014ae565b820191906000526020600020905b8154815290600101906020018083116200149057829003601f168201915b50505050509450838054600181600116156101000203166002900480601f0160208091040260200160405190810160405280929190818152602001828054600181600116156101000203166002900480156200154e5780601f1062001522576101008083540402835291602001916200154e565b820191906000526020600020905b8154815290600101906020018083116200153057829003601f168201915b50505050509350828054600181600116156101000203166002900480601f016020809104026020016040519081016040528092919081815260200182805460018160011615610100020316600290048015620015ee5780601f10620015c257610100808354040283529160200191620015ee565b820191906000526020600020905b815481529060010190602001808311620015d057829003601f168201915b5050505050925095509550955095509550955062001608565b5b91939550919395565b60065481565b600160009054906101000a900473ffffffffffffffffffffffffffffffffffffffff1681565b60c060405190810160405280600073ffffffffffffffffffffffffffffffffffffffff1681526020016000801916815260200160008152602001620016816200185a565b8152602001600081525090565b828054828255906000526020600020908101928215620016cd579160200282015b82811115620016cc578251825591602001919060010190620016af565b5b509050620016dc91906200187c565b5090565b828054600181600116156101000203166002900490600052602060002090601f016020900481019282601f106200172357805160ff191683800117855562001754565b8280016001018555821562001754579182015b828111156200175357825182559160200191906001019062001736565b5b5090506200176391906200187c565b5090565b8154818355818115116200179757600202816002028360005260206000209182019101620017969190620018a4565b5b505050565b6040516109e8806200191e83390190565b60e06040519081016040528060008152602001620017ca620018f5565b8152602001620017d9620018f5565b8152602001620017e8620018f5565b8152602001620017f7620018f5565b815260200160008152602001600060018111156200181157fe5b81525090565b81548183558181151162001841578183600052602060002091820191016200184091906200187c565b5b505050565b602060405190810160405280600081525090565b60408051908101604052806200186f62001909565b8152602001600081525090565b620018a191905b808211156200189d57600081600090555060010162001883565b5090565b90565b620018f291905b80821115620018ee576000808201600090556001820160006101000a81549073ffffffffffffffffffffffffffffffffffffffff021916905550600201620018ab565b5090565b90565b602060405190810160405280600081525090565b602060405190810160405280600081525090560060606040526040805190810160405280600481526020017f6f70656e000000000000000000000000000000000000000000000000000000008152506007908051906020019061004f92919061014f565b506040516060806109e883398101604052808051906020019091908051906020019091908051906020019091905050826000806101000a81548173ffffffffffffffffffffffffffffffffffffffff021916908373ffffffffffffffffffffffffffffffffffffffff16021790555081600160006101000a81548173ffffffffffffffffffffffffffffffffffffffff021916908373ffffffffffffffffffffffffffffffffffffffff16021790555080600260006101000a81548173ffffffffffffffffffffffffffffffffffffffff021916908373ffffffffffffffffffffffffffffffffffffffff160217905550426003819055505050506101f4565b828054600181600116156101000203166002900490600052602060002090601f016020900481019282601f1061019057805160ff19168380011785556101be565b828001600101855582156101be579182015b828111156101bd5782518255916020019190600101906101a2565b5b5090506101cb91906101cf565b5090565b6101f191905b808211156101ed5760008160009055506001016101d5565b5090565b90565b6107e5806102036000396000f300606060405260043610610062576000357c0100000000000000000000000000000000000000000000000000000000900463ffffffff16806308551a5314610067578063200d2ed2146100bc5780634d917c9f1461014a5780637150d8ae1461016f575b600080fd5b341561007257600080fd5b61007a6101c4565b604051808273ffffffffffffffffffffffffffffffffffffffff1673ffffffffffffffffffffffffffffffffffffffff16815260200191505060405180910390f35b34156100c757600080fd5b6100cf6101ea565b6040518080602001828103825283818151815260200191508051906020019080838360005b8381101561010f5780820151818401526020810190506100f4565b50505050905090810190601f16801561013c5780820380516001836020036101000a031916815260200191505b509250505060405180910390f35b341561015557600080fd5b61016d60048080351515906020019091905050610292565b005b341561017a57600080fd5b6101826106db565b604051808273ffffffffffffffffffffffffffffffffffffffff1673ffffffffffffffffffffffffffffffffffffffff16815260200191505060405180910390f35b600160009054906101000a900473ffffffffffffffffffffffffffffffffffffffff1681565b6101f2610700565b60078054600181600116156101000203166002900480601f0160208091040260200160405190810160405280929190818152602001828054600181600116156101000203166002900480156102885780601f1061025d57610100808354040283529160200191610288565b820191906000526020600020905b81548152906001019060200180831161026b57829003601f168201915b5050505050905090565b6000809054906101000a900473ffffffffffffffffffffffffffffffffffffffff1673ffffffffffffffffffffffffffffffffffffffff163373ffffffffffffffffffffffffffffffffffffffff16148061033a5750600160009054906101000a900473ffffffffffffffffffffffffffffffffffffffff1673ffffffffffffffffffffffffffffffffffffffff163373ffffffffffffffffffffffffffffffffffffffff16145b151561034557600080fd5b8015156104a9576000809054906101000a900473ffffffffffffffffffffffffffffffffffffffff1673ffffffffffffffffffffffffffffffffffffffff166108fc606460633073ffffffffffffffffffffffffffffffffffffffff1631028115156103ad57fe5b049081150290604051600060405180830381858888f1935050505015156103d357600080fd5b600260009054906101000a900473ffffffffffffffffffffffffffffffffffffffff1673ffffffffffffffffffffffffffffffffffffffff166108fc60643073ffffffffffffffffffffffffffffffffffffffff163181151561043257fe5b049081150290604051600060405180830381858888f19350505050151561045857600080fd5b6040805190810160405280600881526020017f72656a6563746564000000000000000000000000000000000000000000000000815250600790805190602001906104a3929190610714565b506106d8565b6000809054906101000a900473ffffffffffffffffffffffffffffffffffffffff1673ffffffffffffffffffffffffffffffffffffffff163373ffffffffffffffffffffffffffffffffffffffff16141561050657426004819055505b600160009054906101000a900473ffffffffffffffffffffffffffffffffffffffff1673ffffffffffffffffffffffffffffffffffffffff163373ffffffffffffffffffffffffffffffffffffffff16141561056457426005819055505b600060055411801561057857506000600454115b156106d757600160009054906101000a900473ffffffffffffffffffffffffffffffffffffffff1673ffffffffffffffffffffffffffffffffffffffff166108fc606460633073ffffffffffffffffffffffffffffffffffffffff1631028115156105df57fe5b049081150290604051600060405180830381858888f19350505050151561060557600080fd5b600260009054906101000a900473ffffffffffffffffffffffffffffffffffffffff1673ffffffffffffffffffffffffffffffffffffffff166108fc60643073ffffffffffffffffffffffffffffffffffffffff163181151561066457fe5b049081150290604051600060405180830381858888f19350505050151561068a57600080fd5b6040805190810160405280600781526020017f7375636365737300000000000000000000000000000000000000000000000000815250600790805190602001906106d5929190610714565b505b5b50565b6000809054906101000a900473ffffffffffffffffffffffffffffffffffffffff1681565b602060405190810160405280600081525090565b828054600181600116156101000203166002900490600052602060002090601f016020900481019282601f1061075557805160ff1916838001178555610783565b82800160010185558215610783579182015b82811115610782578251825591602001919060010190610767565b5b5090506107909190610794565b5090565b6107b691905b808211156107b257600081600090555060010161079a565b5090565b905600a165627a7a723058202c3df8a33eee609eedbcc59b57f4df81577253d19289115926107a9862e323210029a165627a7a72305820d6b0bc14f5b895004399e51c83085c0f0710875edb5a467a1b6fcfd94ea9ce220029",
  "source": "pragma solidity ^0.4.3;\nimport \"./Escrow.sol\";\n\ncontract Store {\n    address public owner;\n    address public escrowOwner;\n    mapping (address => Customer) customers;\n    mapping (uint => Product) products;\n    mapping (address => Order[]) orders;\n    uint orderNumber;\n    uint public productCount = 0;\n\n    struct Product {\n        uint256 id;\n        string name;\n        string category;\n        string imageLink;\n        string description;\n        uint price;\n        ProductStatus status;\n    }\n    enum ProductStatus { STOCK, SOLD_OUT }\n    struct Customer {\n        address adr;\n        bytes32 name;\n        uint256 balance;\n        Cart cart;\n        uint256 orderNumber;\n    }\n    struct Cart {\n        uint256[] products;\n        uint256 completeSum;\n    }\n    struct Order {\n        // uint256[] products;\n        uint completeSum;\n        Escrow escrow;\n    }\n    event CustomerRegistered(address customer);\n    event ProductAdded(uint256 productId, string name, string category, string imageLink, string description, uint price);\n    event CartProductInserted(address customer, uint256 prodId, uint256 prodPrice, uint256 completeSum);\n    event CartProductRemoved(address customer, uint256 prodId);\n    event CartCheckoutCompleted(address customer, uint256 paymentSum);\n    event CartEmptied(address customer);\n    event OrderCreated(address customer, uint256 orderNumber);\n    event OrderConfirm(address customer, string status);\n    function Store() public {\n        owner = msg.sender;\n    }\n\n    function connectEscrowOwner(address _eOwner) public {\n        escrowOwner = _eOwner;\n    }\n\n    function addProduct(string name, string category, string imageLink, string description, uint price) public {\n        products[productCount].id = productCount;\n        products[productCount].name = name;\n        products[productCount].category = category;\n        products[productCount].imageLink = imageLink;\n        products[productCount].description = description;\n        products[productCount].price = price;\n        products[productCount].status = ProductStatus.STOCK;\n        ProductAdded(productCount, name, category, imageLink, description, price);\n        productCount++;\n    }\n\n    function getProduct(uint productId) public view returns (\n            string,\n            string,\n            string,\n            string,\n            uint,\n            ProductStatus\n        ) {\n        if (productId <= productCount) {\n            return (\n                products[productId].name,\n                products[productId].category,\n                products[productId].imageLink,\n                products[productId].description,\n                products[productId].price,\n                products[productId].status\n            );\n        }\n    }\n\n    function getProductCount() public view returns (uint) {\n        return productCount;\n    }\n\n    function registerCustomer(address _address, bytes32 _name, uint256 _balance) public {\n        Customer memory customer = Customer({adr: _address, name: _name, balance: _balance, cart: Cart(new uint256[](0), 0),orderNumber: 0});\n        customers[_address] = customer;\n        CustomerRegistered(_address);\n    }\n\n    // use when we store cart in block chain\n    function addToCart(uint256 id) public returns (bool success, uint256 pos_in_prod_mapping) {\n        Customer storage cust = customers[msg.sender];\n        Product memory prod = products[id];\n        uint256 prods_prev_len = cust.cart.products.length;\n        cust.cart.products.push(prod.id);\n        uint256 current_sum = cust.cart.completeSum;\n        cust.cart.completeSum = current_sum + prod.price;\n        if (cust.cart.products.length > prods_prev_len) {\n            CartProductInserted(msg.sender, id, prod.price, cust.cart.completeSum);\n            return (true, cust.cart.products.length - 1);\n        }\n        return (false, 0);\n    }\n\n    function checkoutCart( uint _completeSum) public returns (bool success) {\n        if ((msg.sender.balance >= _completeSum)) {\n            orders[msg.sender].push(Order(_completeSum, (new Escrow).value(_completeSum)(msg.sender, owner, escrowOwner)));\n            orderNumber++;\n            CartCheckoutCompleted(msg.sender, _completeSum);\n            return true;\n        }\n        return false;\n    }\n\n\n    // function confirmOrder() public {\n    //     orders[msg.sender].escrow.update(true);\n    //     OrderConfirm(msg.sender, orders[msg.sender].escrow.status);\n    // }\n\n    // function rejectOrder(uint256 _orderNumber) public returns (bool success) {\n    //     orders[_orderNumber].escrow.update(false);\n    // }\n}\n",
  "sourcePath": "/Users/thanh/bc-assignment-2/contracts/Store.sol",
  "compiler": {
    "name": "solc",
    "version": "0.4.19+commit.c4cbbb05.Emscripten.clang"
  },
  "schemaVersion": "2.0.0",
  "updatedAt": "2018-03-29T17:18:26.618Z"
}