{
  "contractName": "Store",
  "abi": [
    {
      "constant": true,
      "inputs": [],
      "name": "owner",
      "outputs": [
        {
          "name": "",
          "type": "address"
        }
      ],
      "payable": false,
      "stateMutability": "view",
      "type": "function"
    },
    {
      "constant": true,
      "inputs": [],
      "name": "escrowOwner",
      "outputs": [
        {
          "name": "",
          "type": "address"
        }
      ],
      "payable": false,
      "stateMutability": "view",
      "type": "function"
    },
    {
      "inputs": [],
      "payable": false,
      "stateMutability": "nonpayable",
      "type": "constructor"
    },
    {
      "anonymous": false,
      "inputs": [
        {
          "indexed": false,
          "name": "customer",
          "type": "address"
        }
      ],
      "name": "CustomerRegistered",
      "type": "event"
    },
    {
      "anonymous": false,
      "inputs": [
        {
          "indexed": false,
          "name": "productId",
          "type": "uint256"
        },
        {
          "indexed": false,
          "name": "name",
          "type": "string"
        },
        {
          "indexed": false,
          "name": "category",
          "type": "string"
        },
        {
          "indexed": false,
          "name": "imageLink",
          "type": "string"
        },
        {
          "indexed": false,
          "name": "descLink",
          "type": "string"
        },
        {
          "indexed": false,
          "name": "price",
          "type": "uint256"
        }
      ],
      "name": "ProductAdded",
      "type": "event"
    },
    {
      "anonymous": false,
      "inputs": [
        {
          "indexed": false,
          "name": "customer",
          "type": "address"
        },
        {
          "indexed": false,
          "name": "prodId",
          "type": "uint256"
        },
        {
          "indexed": false,
          "name": "prodPrice",
          "type": "uint256"
        },
        {
          "indexed": false,
          "name": "completeSum",
          "type": "uint256"
        }
      ],
      "name": "CartProductInserted",
      "type": "event"
    },
    {
      "anonymous": false,
      "inputs": [
        {
          "indexed": false,
          "name": "customer",
          "type": "address"
        },
        {
          "indexed": false,
          "name": "prodId",
          "type": "uint256"
        }
      ],
      "name": "CartProductRemoved",
      "type": "event"
    },
    {
      "anonymous": false,
      "inputs": [
        {
          "indexed": false,
          "name": "customer",
          "type": "address"
        },
        {
          "indexed": false,
          "name": "paymentSum",
          "type": "uint256"
        }
      ],
      "name": "CartCheckoutCompleted",
      "type": "event"
    },
    {
      "anonymous": false,
      "inputs": [
        {
          "indexed": false,
          "name": "customer",
          "type": "address"
        }
      ],
      "name": "CartEmptied",
      "type": "event"
    },
    {
      "anonymous": false,
      "inputs": [
        {
          "indexed": false,
          "name": "customer",
          "type": "address"
        },
        {
          "indexed": false,
          "name": "orderNumber",
          "type": "uint256"
        }
      ],
      "name": "OrderCreated",
      "type": "event"
    },
    {
      "constant": false,
      "inputs": [
        {
          "name": "_eOwner",
          "type": "address"
        }
      ],
      "name": "connectEscrowOwner",
      "outputs": [],
      "payable": false,
      "stateMutability": "nonpayable",
      "type": "function"
    },
    {
      "constant": false,
      "inputs": [
        {
          "name": "name",
          "type": "string"
        },
        {
          "name": "category",
          "type": "string"
        },
        {
          "name": "imageLink",
          "type": "string"
        },
        {
          "name": "descLink",
          "type": "string"
        },
        {
          "name": "price",
          "type": "uint256"
        }
      ],
      "name": "addProduct",
      "outputs": [],
      "payable": false,
      "stateMutability": "nonpayable",
      "type": "function"
    },
    {
      "constant": false,
      "inputs": [
        {
          "name": "_address",
          "type": "address"
        },
        {
          "name": "_name",
          "type": "bytes32"
        },
        {
          "name": "_balance",
          "type": "uint256"
        }
      ],
      "name": "registerCustomer",
      "outputs": [],
      "payable": false,
      "stateMutability": "nonpayable",
      "type": "function"
    },
    {
      "constant": false,
      "inputs": [
        {
          "name": "id",
          "type": "uint256"
        }
      ],
      "name": "addToCart",
      "outputs": [
        {
          "name": "success",
          "type": "bool"
        },
        {
          "name": "pos_in_prod_mapping",
          "type": "uint256"
        }
      ],
      "payable": false,
      "stateMutability": "nonpayable",
      "type": "function"
    },
    {
      "constant": false,
      "inputs": [],
      "name": "checkoutCart",
      "outputs": [
        {
          "name": "success",
          "type": "bool"
        }
      ],
      "payable": false,
      "stateMutability": "nonpayable",
      "type": "function"
    },
    {
      "constant": false,
      "inputs": [
        {
          "name": "_orderNumber",
          "type": "uint256"
        }
      ],
      "name": "confirmOrder",
      "outputs": [
        {
          "name": "success",
          "type": "bool"
        }
      ],
      "payable": false,
      "stateMutability": "nonpayable",
      "type": "function"
    },
    {
      "constant": false,
      "inputs": [
        {
          "name": "_orderNumber",
          "type": "uint256"
        }
      ],
      "name": "rejectOrder",
      "outputs": [
        {
          "name": "success",
          "type": "bool"
        }
      ],
      "payable": false,
      "stateMutability": "nonpayable",
      "type": "function"
    }
  ],
  "bytecode": "0x6060604052341561000f57600080fd5b336000806101000a81548173ffffffffffffffffffffffffffffffffffffffff021916908373ffffffffffffffffffffffffffffffffffffffff160217905550611ae58061005e6000396000f300606060405260043610610099576000357c0100000000000000000000000000000000000000000000000000000000900463ffffffff168063215270901461009e57806324f63894146100ed57806325dfbfba14610128578063635af6f214610257578063702742b014610290578063713be000146102d25780638ac7d79c146102ff5780638da5cb5b1461033a578063e1e417c41461038f575b600080fd5b34156100a957600080fd5b6100eb600480803573ffffffffffffffffffffffffffffffffffffffff16906020019091908035600019169060200190919080359060200190919050506103e4565b005b34156100f857600080fd5b61010e60048080359060200190919050506105ae565b604051808215151515815260200191505060405180910390f35b341561013357600080fd5b610255600480803590602001908201803590602001908080601f0160208091040260200160405190810160405280939291908181526020018383808284378201915050505050509190803590602001908201803590602001908080601f0160208091040260200160405190810160405280939291908181526020018383808284378201915050505050509190803590602001908201803590602001908080601f0160208091040260200160405190810160405280939291908181526020018383808284378201915050505050509190803590602001908201803590602001908080601f01602080910402602001604051908101604052809392919081815260200183838082843782019150505050505091908035906020019091905050610674565b005b341561026257600080fd5b61028e600480803573ffffffffffffffffffffffffffffffffffffffff169060200190919050506109ac565b005b341561029b57600080fd5b6102b160048080359060200190919050506109f0565b60405180831515151581526020018281526020019250505060405180910390f35b34156102dd57600080fd5b6102e5610e4a565b604051808215151515815260200191505060405180910390f35b341561030a57600080fd5b610320600480803590602001909190505061132b565b604051808215151515815260200191505060405180910390f35b341561034557600080fd5b61034d6113f1565b604051808273ffffffffffffffffffffffffffffffffffffffff1673ffffffffffffffffffffffffffffffffffffffff16815260200191505060405180910390f35b341561039a57600080fd5b6103a2611416565b604051808273ffffffffffffffffffffffffffffffffffffffff1673ffffffffffffffffffffffffffffffffffffffff16815260200191505060405180910390f35b6103ec61143c565b60a0604051908101604052808573ffffffffffffffffffffffffffffffffffffffff168152602001846000191681526020018381526020016040805190810160405280600060405180591061043e5750595b90808252806020026020018201604052508152602001600081525081526020016000815250905080600260008673ffffffffffffffffffffffffffffffffffffffff1673ffffffffffffffffffffffffffffffffffffffff16815260200190815260200160002060008201518160000160006101000a81548173ffffffffffffffffffffffffffffffffffffffff021916908373ffffffffffffffffffffffffffffffffffffffff1602179055506020820151816001019060001916905560408201518160020155606082015181600301600082015181600001908051906020019061052b92919061148b565b50602082015181600101555050608082015181600501559050507f155e8619f4d23b96769599cb9af87da3e06a360082869c18578011da9a06e67084604051808273ffffffffffffffffffffffffffffffffffffffff1673ffffffffffffffffffffffffffffffffffffffff16815260200191505060405180910390a150505050565b600060046000600554815260200190815260200160002060000160009054906101000a900473ffffffffffffffffffffffffffffffffffffffff1673ffffffffffffffffffffffffffffffffffffffff16634d917c9f60006040518263ffffffff167c01000000000000000000000000000000000000000000000000000000000281526004018082151515158152602001915050600060405180830381600087803b151561065b57600080fd5b6102c65a03f1151561066c57600080fd5b505050919050565b600654600360006006548152602001908152602001600020600001819055508460036000600654815260200190815260200160002060010190805190602001906106bf9291906114d8565b508360036000600654815260200190815260200160002060020190805190602001906106ec9291906114d8565b508260036000600654815260200190815260200160002060030190805190602001906107199291906114d8565b508160036000600654815260200190815260200160002060040190805190602001906107469291906114d8565b508060036000600654815260200190815260200160002060050181905550600060036000600654815260200190815260200160002060060160006101000a81548160ff0219169083600181111561079957fe5b02179055506006600081548092919060010191905055507fc80d8977eb21bc7ae81efad32286b6030afbbf2efdb146c4949d55849fa267076006548686868686604051808781526020018060200180602001806020018060200186815260200185810385528a818151815260200191508051906020019080838360005b83811015610831578082015181840152602081019050610816565b50505050905090810190601f16801561085e5780820380516001836020036101000a031916815260200191505b50858103845289818151815260200191508051906020019080838360005b8381101561089757808201518184015260208101905061087c565b50505050905090810190601f1680156108c45780820380516001836020036101000a031916815260200191505b50858103835288818151815260200191508051906020019080838360005b838110156108fd5780820151818401526020810190506108e2565b50505050905090810190601f16801561092a5780820380516001836020036101000a031916815260200191505b50858103825287818151815260200191508051906020019080838360005b83811015610963578082015181840152602081019050610948565b50505050905090810190601f1680156109905780820380516001836020036101000a031916815260200191505b509a505050505050505050505060405180910390a15050505050565b80600160006101000a81548173ffffffffffffffffffffffffffffffffffffffff021916908373ffffffffffffffffffffffffffffffffffffffff16021790555050565b60008060006109fd611558565b600080600260003373ffffffffffffffffffffffffffffffffffffffff1673ffffffffffffffffffffffffffffffffffffffff16815260200190815260200160002093506003600088815260200190815260200160002060e0604051908101604052908160008201548152602001600182018054600181600116156101000203166002900480601f016020809104026020016040519081016040528092919081815260200182805460018160011615610100020316600290048015610b035780601f10610ad857610100808354040283529160200191610b03565b820191906000526020600020905b815481529060010190602001808311610ae657829003601f168201915b50505050508152602001600282018054600181600116156101000203166002900480601f016020809104026020016040519081016040528092919081815260200182805460018160011615610100020316600290048015610ba55780601f10610b7a57610100808354040283529160200191610ba5565b820191906000526020600020905b815481529060010190602001808311610b8857829003601f168201915b50505050508152602001600382018054600181600116156101000203166002900480601f016020809104026020016040519081016040528092919081815260200182805460018160011615610100020316600290048015610c475780601f10610c1c57610100808354040283529160200191610c47565b820191906000526020600020905b815481529060010190602001808311610c2a57829003601f168201915b50505050508152602001600482018054600181600116156101000203166002900480601f016020809104026020016040519081016040528092919081815260200182805460018160011615610100020316600290048015610ce95780601f10610cbe57610100808354040283529160200191610ce9565b820191906000526020600020905b815481529060010190602001808311610ccc57829003601f168201915b50505050508152602001600582015481526020016006820160009054906101000a900460ff166001811115610d1a57fe5b6001811115610d2557fe5b81525050925083600301600001805490509150836003016000018054806001018281610d5191906115b9565b91600052602060002090016000856000015190919091505550836003016001015490508260a00151810184600301600101819055508184600301600001805490501115610e36577f1e862ddcab5a3222c811c44ecc1c4a46d3da57dde0e884ad6e7e070a8ece237733888560a001518760030160010154604051808573ffffffffffffffffffffffffffffffffffffffff1673ffffffffffffffffffffffffffffffffffffffff16815260200184815260200183815260200182815260200194505050505060405180910390a160018085600301600001805490500395509550610e41565b600080809050955095505b50505050915091565b6000610e5461143c565b6000610e5e6115e5565b600260003373ffffffffffffffffffffffffffffffffffffffff1673ffffffffffffffffffffffffffffffffffffffff16815260200190815260200160002060a060405190810160405290816000820160009054906101000a900473ffffffffffffffffffffffffffffffffffffffff1673ffffffffffffffffffffffffffffffffffffffff1673ffffffffffffffffffffffffffffffffffffffff168152602001600182015460001916600019168152602001600282015481526020016003820160408051908101604052908160008201805480602002602001604051908101604052809291908181526020018280548015610f7a57602002820191906000526020600020905b815481526020019060010190808311610f66575b5050505050815260200160018201548152505081526020016005820154815250509250826060015160200151915081836040015110158015610fc55750600083606001516000015151115b156113205760408051908101604052806000604051805910610fe45750595b908082528060200260200182016040525081526020016000815250836060018190525060206040519081016040528083336000809054906101000a900473ffffffffffffffffffffffffffffffffffffffff16600160009054906101000a900473ffffffffffffffffffffffffffffffffffffffff1661106261160f565b808473ffffffffffffffffffffffffffffffffffffffff1673ffffffffffffffffffffffffffffffffffffffff1681526020018373ffffffffffffffffffffffffffffffffffffffff1673ffffffffffffffffffffffffffffffffffffffff1681526020018273ffffffffffffffffffffffffffffffffffffffff1673ffffffffffffffffffffffffffffffffffffffff16815260200193505050506040518091039082f080151561111357600080fd5b905073ffffffffffffffffffffffffffffffffffffffff168152509050806000015173ffffffffffffffffffffffffffffffffffffffff16634d917c9f60016040518263ffffffff167c01000000000000000000000000000000000000000000000000000000000281526004018082151515158152602001915050600060405180830381600087803b15156111a757600080fd5b6102c65a03f115156111b857600080fd5b505050826080018051809190600101815250508060046000600554815260200190815260200160002060008201518160000160006101000a81548173ffffffffffffffffffffffffffffffffffffffff021916908373ffffffffffffffffffffffffffffffffffffffff1602179055509050506005600081548092919060010191905055507f8068f12c6f872a8083325d2bfebb318eb0378ba88e7012c368a8156893a236e13383604051808373ffffffffffffffffffffffffffffffffffffffff1673ffffffffffffffffffffffffffffffffffffffff1681526020018281526020019250505060405180910390a17fcb0c37c16aa3b0bbb7a817932094d8a20a00996d426a813f067039f0ef87ab07338460800151604051808373ffffffffffffffffffffffffffffffffffffffff1673ffffffffffffffffffffffffffffffffffffffff1681526020018281526020019250505060405180910390a160019350611325565b600093505b50505090565b600060046000600554815260200190815260200160002060000160009054906101000a900473ffffffffffffffffffffffffffffffffffffffff1673ffffffffffffffffffffffffffffffffffffffff16634d917c9f60016040518263ffffffff167c01000000000000000000000000000000000000000000000000000000000281526004018082151515158152602001915050600060405180830381600087803b15156113d857600080fd5b6102c65a03f115156113e957600080fd5b505050919050565b6000809054906101000a900473ffffffffffffffffffffffffffffffffffffffff1681565b600160009054906101000a900473ffffffffffffffffffffffffffffffffffffffff1681565b60c060405190810160405280600073ffffffffffffffffffffffffffffffffffffffff168152602001600080191681526020016000815260200161147e61161f565b8152602001600081525090565b8280548282559060005260206000209081019282156114c7579160200282015b828111156114c65782518255916020019190600101906114ab565b5b5090506114d4919061163f565b5090565b828054600181600116156101000203166002900490600052602060002090601f016020900481019282601f1061151957805160ff1916838001178555611547565b82800160010185558215611547579182015b8281111561154657825182559160200191906001019061152b565b5b509050611554919061163f565b5090565b60e06040519081016040528060008152602001611573611664565b8152602001611580611664565b815260200161158d611664565b815260200161159a611664565b815260200160008152602001600060018111156115b357fe5b81525090565b8154818355818115116115e0578183600052602060002091820191016115df919061163f565b5b505050565b602060405190810160405280600073ffffffffffffffffffffffffffffffffffffffff1681525090565b60405161042d8061168d83390190565b6040805190810160405280611632611678565b8152602001600081525090565b61166191905b8082111561165d576000816000905550600101611645565b5090565b90565b602060405190810160405280600081525090565b6020604051908101604052806000815250905600606060405260405160608061042d83398101604052808051906020019091908051906020019091908051906020019091905050826000806101000a81548173ffffffffffffffffffffffffffffffffffffffff021916908373ffffffffffffffffffffffffffffffffffffffff16021790555081600160006101000a81548173ffffffffffffffffffffffffffffffffffffffff021916908373ffffffffffffffffffffffffffffffffffffffff16021790555080600260006101000a81548173ffffffffffffffffffffffffffffffffffffffff021916908373ffffffffffffffffffffffffffffffffffffffff160217905550426003819055505050506103208061010d6000396000f300606060405260043610610041576000357c0100000000000000000000000000000000000000000000000000000000900463ffffffff1680634d917c9f14610046575b600080fd5b341561005157600080fd5b6100696004808035151590602001909190505061006b565b005b6000809054906101000a900473ffffffffffffffffffffffffffffffffffffffff1673ffffffffffffffffffffffffffffffffffffffff163373ffffffffffffffffffffffffffffffffffffffff1614806101135750600160009054906101000a900473ffffffffffffffffffffffffffffffffffffffff1673ffffffffffffffffffffffffffffffffffffffff163373ffffffffffffffffffffffffffffffffffffffff16145b151561011e57600080fd5b8015156101a2576000809054906101000a900473ffffffffffffffffffffffffffffffffffffffff1673ffffffffffffffffffffffffffffffffffffffff166108fc3073ffffffffffffffffffffffffffffffffffffffff16319081150290604051600060405180830381858888f19350505050151561019d57600080fd5b6102f1565b6000809054906101000a900473ffffffffffffffffffffffffffffffffffffffff1673ffffffffffffffffffffffffffffffffffffffff163373ffffffffffffffffffffffffffffffffffffffff1614156101ff57426004819055505b600160009054906101000a900473ffffffffffffffffffffffffffffffffffffffff1673ffffffffffffffffffffffffffffffffffffffff163373ffffffffffffffffffffffffffffffffffffffff16141561025d57426005819055505b600060055411801561027157506000600454115b156102f057600160009054906101000a900473ffffffffffffffffffffffffffffffffffffffff1673ffffffffffffffffffffffffffffffffffffffff166108fc3073ffffffffffffffffffffffffffffffffffffffff16319081150290604051600060405180830381858888f1935050505015156102ef57600080fd5b5b5b505600a165627a7a723058206f7bccc0e7f6c53ebe2b3c1315f3ef2d4f514a0c627f021ffe4044b9d433ff2f0029a165627a7a72305820498a47b3427f513b895353f7a3663d57913cff7660e46bb5d6ccfcc6dcc78a080029",
  "source": "pragma solidity ^0.4.3;\nimport \"./Escrow.sol\";\n\ncontract Store {\n    address public owner;\n    address public escrowOwner;\n    mapping (address => Customer) customers;\n    mapping (uint256 => Product) products;\n    mapping (uint256 => Order) orders;\n    uint256 orderNumber;\n    uint256 productCount;\n    struct Product {\n        uint256 id;\n        string name;\n        string category;\n        string imageLink;\n        string descLink;\n        uint256 price;\n        ProductStatus status;\n    }\n    enum ProductStatus { STOCK, SOLD_OUT }\n    struct Customer {\n        address adr;\n        bytes32 name;\n        uint256 balance;\n        Cart cart;\n        uint256 orderNumber;\n    }\n    struct Cart {\n        uint256[] products;\n        uint256 completeSum;\n    }\n    struct Order {\n        Escrow escrow;\n    }\n    event CustomerRegistered(address customer);\n    event ProductAdded(uint256 productId, string name, string category, string imageLink, string descLink, uint256 price);\n    event CartProductInserted(address customer, uint256 prodId, uint256 prodPrice, uint256 completeSum);\n    event CartProductRemoved(address customer, uint256 prodId);\n    event CartCheckoutCompleted(address customer, uint256 paymentSum);\n    event CartEmptied(address customer);\n    event OrderCreated(address customer, uint256 orderNumber);\n\n    function Store() public {\n        owner = msg.sender;\n    }\n\n    function connectEscrowOwner(address _eOwner) public {\n        escrowOwner = _eOwner;\n    }\n\n    function addProduct(string name, string category, string imageLink, string descLink, uint256 price) public {\n        products[productCount].id = productCount;\n        products[productCount].name = name;\n        products[productCount].category = category;\n        products[productCount].imageLink = imageLink;\n        products[productCount].descLink = descLink;\n        products[productCount].price = price;\n        products[productCount].status = ProductStatus.STOCK;\n        productCount++;\n        ProductAdded(productCount, name, category, imageLink, descLink, price);\n    }\n\n    function registerCustomer(address _address, bytes32 _name, uint256 _balance) public {\n        Customer memory customer = Customer({adr: _address, name: _name, balance: _balance, cart: Cart(new uint256[](0), 0),orderNumber: 0});\n        customers[_address] = customer;\n        CustomerRegistered(_address);\n    }\n\n    function addToCart(uint256 id) public returns (bool success, uint256 pos_in_prod_mapping) {\n        Customer storage cust = customers[msg.sender];\n        Product memory prod = products[id];\n        uint256 prods_prev_len = cust.cart.products.length;\n        cust.cart.products.push(prod.id);\n        uint256 current_sum = cust.cart.completeSum;\n        cust.cart.completeSum = current_sum + prod.price;\n        if (cust.cart.products.length > prods_prev_len) {\n            CartProductInserted(msg.sender, id, prod.price, cust.cart.completeSum);\n            return (true, cust.cart.products.length - 1);\n        }\n        return (false, 0);\n    }\n\n    // function removeFromCart(uint256 prod_pos_in_mapping) public {\n    //     uint256[] memory new_product_list = new uint256[](customers[msg.sender].cart.products.length - 1);\n    //     Product[] storage customerProds = customers[msg.sender].cart.products;\n    //     for (uint256 i = 0; i < customerProds.length; i++) {\n    //         if (i != prod_pos_in_mapping) {\n    //             new_product_list[i] = customerProds[i];\n    //         } else {\n    //             customers[msg.sender].cart.completeSum -= products[customerProds[i]].price;\n    //             CartProductRemoved(msg.sender, customerProds[i]);\n    //         }\n    //     }\n    //     customers[msg.sender].cart.products = new_product_list;\n    // }\n\n    function checkoutCart() public returns (bool success) {\n        Customer memory customer = customers[msg.sender];\n        uint256 paymentSum = customer.cart.completeSum;\n        if ((customer.balance >= paymentSum) &&\n            customer.cart.products.length > 0) {\n            customer.cart = Cart(new uint256[](0), 0);\n            Order memory order = Order((new Escrow).value(paymentSum)(msg.sender, owner, escrowOwner));\n            order.escrow.update(true);\n            // customer.orders.push(order);\n            customer.orderNumber++;\n            orders[orderNumber] = order;\n            orderNumber++;\n            CartCheckoutCompleted(msg.sender, paymentSum);\n            OrderCreated(msg.sender, customer.orderNumber);\n            return true;\n        }\n        return false;\n    }\n\n    function confirmOrder(uint256 _orderNumber) public returns (bool success) {\n        orders[orderNumber].escrow.update(true);\n    }\n\n    function rejectOrder(uint256 _orderNumber) public returns (bool success) {\n        orders[orderNumber].escrow.update(false);\n    }\n}\n",
  "sourcePath": "/Users/thanh/bc-assignment-2/contracts/Store.sol",
  "compiler": {
    "name": "solc",
    "version": "0.4.19+commit.c4cbbb05.Emscripten.clang"
  },
  "schemaVersion": "2.0.0",
  "updatedAt": "2018-03-27T15:34:29.168Z"
}